:08000000803102288731EB2F4B
:10000C006A30210099009801220096010800F8003E
:10001C0078080319122813282728F31F16281728E5
:10002C0027287009FA007109FB007209FC0073099A
:10003C00FD00FA0A0319FB0A0319FC0A0319FD0A4D
:10004C002F287308FD007208FC007108FB00700873
:10005C00FA007308720471047004031D36283728E3
:10006C0040280030F3000030F2000030F100003086
:10007C00F000B6289630F9004E280130F4007408D0
:10008C00F9070130FD36FC0CFB0CFA0C890B4828E7
:10009C00FE307D05031D5328542843286828013061
:1000AC00F4007408F9070130FA070030FB3D00300A
:1000BC00FC3D0030FD3D0130FD36FC0CFB0CFA0C18
:1000CC00890B6228FF307D05031D6D286E2855288D
:1000DC0078280130F9020130FA35FB0DFC0DFD0DCD
:1000EC00890B7228FC1B7B287C2882280230790221
:1000FC000318812882286F287918852886288E284D
:10010C00FF30FA05FF30FB057F30FC05FF30FD05A5
:10011C000310F90C7908F400F501F601F701183019
:10012C00F435F50DF60DF70D890B96287408FA04C5
:10013C007508FB047608FC047708FD04780803199D
:10014C00A828A928AE28F31FAC28AD28AE28FD1787
:10015C007D08F3007C08F2007B08F1007A08F000BF
:10016C0008002100590886008701403FDB00413F11
:10017C00DC005B0884005C0885001200253A031D36
:10018C00C828C928872959088600870101308107AA
:10019C0041310318810A2200B401B501031000306B
:1001AC0003180130B800FF30B600FF30B700210053
:1001BC00590886008701403FE400413FE500640890
:1001CC008400650885000008E300F6280130E40788
:1001DC000030E53D09296C30E3000929E3010929C8
:1001EC006308DB00DC015C08003A0319FE28F428E4
:1001FC005B084C3A0319EC282A3A0319F1280A3AFD
:10020C000319EC28F42864088400650885001200A2
:10021C00663A031D122913297D2938295A088600AC
:10022C008701010884000130850004308107003FFC
:10023C00DF00013FE000023FE100033FE2004829FC
:10024C005A088600870101088400013085000430BB
:10025C008107003FDF00013FE000023FE100033F68
:10026C00E20048296308DB00DC015C08003A031952
:10027C00402948295B084C3A03192629203A0319CE
:10028C00142948296408013EDB000030653DDC0080
:10029C005908860087015B08C03F5C08C13F6C2988
:1002AC005808A1005708A0006208A5006108A40026
:1002BC006008A3005F08A20064088400650885003C
:1002CC000008A6008131A2218031A1296408840094
:1002DC00650885000008DB00DC015C08003A0319A6
:1002EC0078297D295B08663A031956297D29210056
:1002FC005908860087010130810741310318810AB2
:10030C00A129590886008701403FDB00413FDC00F2
:10031C005B0884005C0885000008DD00DE015D08D8
:10032C00F2005E08F3005808F5005708F400953108
:10033C003D2580317D2908002100CC012508D20003
:10034C002408D1002308D0002208CF005208200036
:10035C00BD00210051082000BC00210050082000E5
:10036C00BB0021004F082000BA000030C100003053
:10037C00C0000030BF000030BE0096318A268131AB
:10038C000318C929CA29E1292100CC01CC0A520839
:10039C00F3005108F2005008F1004F08F0009331BF
:1003AC004023813173082100D2007208D1007108FA
:1003BC00D0007008CF002100CD01CE0122003508FD
:1003CC002100BD00220034082100BC004C08031998
:1003DC00F029F129012A4C08031DF529F629FB29DE
:1003EC002B30B1000030B200FF292D30B1000030AD
:1003FC00B2003108CC005208F3005108F20050084A
:10040C00F1004F08F00096310B2681317003710416
:10041C00031D112A122A472A21004C080319172AF6
:10042C00182A242A4C082300A000FF302100BC0706
:10043C00FF30BD3D0130CD000030CE004830F00023
:10044C009830F1004D08A03E93319D238131FD3051
:10045C002100BC07FF30BD3D21082000A700210072
:10046C0020082000A600A030A80021003D08200094
:10047C00AA0021003C082000A9009431BC24813141
:10048C00EA2F21005208F3005108F2005008F10045
:10049C004F08F00096310B26813170087104031D52
:1004AC00582A592A752A21004C0803195E2A5F2AFA
:1004BC006B2A4C082300A000FF302100BC07FF3042
:1004CC00BD3D0130CD000030CE004C30F0009830F6
:1004DC00F1004D08A03E93319D2381312D2A3F30F0
:1004EC002100D6008030D5000030D4000030D3007D
:1004FC00BA01BB015208F3005108F2005008F10098
:10050C004F08F0000030F7000030F6000030F50026
:10051C000030F4009431EF2481310318962A972A85
:10052C00D32BA52A21004108D6004008D5003F084E
:10053C00D4003E08D3000130BA070030BB3D413037
:10054C002000A3002030A2000030A1000030A00049
:10055C00210056082000A700210055082000A60005
:10056C00210054082000A500210053082000A400FD
:10057C008D31C5258131200023082100C1002000C8
:10058C0022082100C000200021082100BF0020000B
:10059C0020082100BE003E084F02A7003F08503B38
:1005AC00A8004008513BA9004108523BAA002A0868
:1005BC00F3002908F2002808F1002708F000933115
:1005CC006F238131F31BF82A7308031DF92A720873
:1005DC00031DF92A7108031DF92A02307002031C4D
:1005EC00F82AF92A982A210041082000BD00210090
:1005FC0040082000BC0021003F082000BB00210067
:10060C003E082000BA00210052082000C100210041
:10061C0051082000C000210050082000BF0021001C
:10062C004F082000BE0096318A268131031C1F2BF7
:10063C00202B982A210053084F02A7005408503B46
:10064C00A8005508513BA9005608523BAA002A089D
:10065C00F3002908F2002808F1002708F000933174
:10066C006F238131F31B492B7308031D482B720830
:10067C00031D482B7108031D482B02307002031810
:10068C00482B492BAC2B21005608D2005508D10021
:10069C005408D0005308CF00D32B41302000C500A4
:1006AC002030C4000030C3000030C20021005608C6
:1006BC002000C900210055082000C8002100540862
:1006CC002000C700210053082000C60088310320F9
:1006DC008131200045082100D6002000440821006B
:1006EC00D500200043082100D4002000420821003E
:1006FC00D300FF30BA07FF30BB3D53084F02A700B1
:10070C005408503BA8005508513BA9005608523BD1
:10071C00AA002A08F3002908F2002808F10027088B
:10072C00F00093316F238131F31BAB2B7308031D46
:10073C00AA2B7208031DAA2B7108031DAA2B0230C9
:10074C0070020318AA2BAB2BAC2B492B210052089F
:10075C002000BD00210051082000BC0021005008E1
:10076C002000BB0021004F082000BA0021005608D1
:10077C002000C100210055082000C00021005408B1
:10078C002000BF00210053082000BE0096318A26AD
:10079C008131031CD22BD32B532B21002608B40000
:1007AC003408B5002200B71BDC2BDD2BE52B3708FA
:1007BC002100AE00220036082100AD00EA2B0630E5
:1007CC002100AD000030AE002E08B9002D08B80095
:1007DC000130B8070030B93D66303506031DF72BE4
:1007EC00F82B102CBB1FFB2BFC2B062C3F30D60000
:1007FC008030D5000030D4000030D300BA01BB01EA
:10080C006730340603190B2C0C2C102C3A08B80743
:10081C003B08B93DC201C3015208C7005108C600CC
:10082C005008C5004F08C4005608C1005508C00048
:10083C005408BF005308BE00FA2C210056082000B3
:10084C00C500210055082000C400210054082000D8
:10085C00C300210053082000C200210047082000DB
:10086C00C900210046082000C800210045082000CE
:10087C00C700210044082000C600883103208131C4
:10088C0020004508DF004408DE004308DD00420874
:10089C00DC0097311527813120005F082100CB0047
:1008AC0020005E082100CA0020005D082100C9005C
:1008BC0020005C082100C8004B082000BD0021006E
:1008CC004A082000BC00210049082000BB00210080
:1008DC0048082000BA0095319A25813120003B0848
:1008EC002100B70020003A082100B600560820006D
:1008FC00A700210055082000A60021005408200064
:10090C00A500210053082000A40021004B08200062
:10091C00A30021004A082000A20021004908200061
:10092C00A100210048082000A0008D31C52581318F
:10093C0020002308BD002208BC002108BB002008B1
:10094C00BA00210047082000C10021004608200001
:10095C00C000210045082000BF00210044082000F1
:10096C00BE009331D623813120003D082100C70001
:10097C0020003C082100C60020003B082100C500D7
:10098C0020003A082100C40041302000C50020306E
:10099C00C4000030C3000030C20021005608200003
:1009AC00C900210055082000C8002100540820006F
:1009BC00C700210053082000C60088310320813174
:1009CC00200045082100D600200044082100D50055
:1009DC00200043082100D400200042082100D3004D
:1009EC000130C2070030C33D4308803AA7003908E4
:1009FC00803A2702031D042D38084202031C072DE0
:100A0C00082D232C40302000A300A030A200003081
:100A1C00A1000030A000210056082000A7002100F2
:100A2C0055082000A600210054082000A500210034
:100A3C0053082000A4008D31C525813120002308E6
:100A4C002100CB00200022082100CA002000210830
:100A5C002100C900200020082100C8004708200000
:100A6C00BD00210046082000BC00210045082000E4
:100A7C00BB00210044082000BA0021004B082000D4
:100A8C00C10021004A082000C000210049082000B4
:100A9C00BF00210048082000BE0096318A26813113
:100AAC000318592D5A2D642D00302100CB00003035
:100ABC00CA000030C9000030C800892D2100470849
:100ACC00F3004608F2004508F1004408F0004B081A
:100ADC00F7004A08F6004908F5004808F40094317C
:100AEC00EF248131031C7B2D7C2D892D21003618A0
:100AFC00802D812D892D0030CB000030CA000030B4
:100B0C00C9000030C80021004B08F3004A08F2006D
:100B1C004908F1004808F0005208F7005108F600A7
:100B2C005008F5004F08F4008931AD21813173086C
:100B3C002100C7007208C6007108C5007008C40007
:100B4C0047082000BD00210046082000BC00210001
:100B5C0045082000BB00210044082000BA004130A9
:100B6C00A3002030A2000030A1000030A000210022
:100B7C0041082000A700210040082000A600210009
:100B8C003F082000A50021003E082000A4008D3164
:100B9C00C525813120002308C1002208C00021088E
:100BAC00BF002008BE0096318A268131031CDF2D40
:100BBC00E02D1B2E01302100BA070030BB3D413027
:100BCC002000A3002030A2000030A1000030A000C3
:100BDC00210041082000A700210040082000A600A9
:100BEC0021003F082000A50021003E082000A400A1
:100BFC008D31C5258131200023082100C100200042
:100C0C0022082100C000200021082100BF00200084
:100C1C0020082100BE0066303506031D162E172E47
:100C2C001B2E0130B8070030B93D21004108D60019
:100C3C004008D5003F08D4003E08D3003B08AC0068
:100C4C003A08AB00B301AF01B001C201C301762F6A
:100C5C00210056082000C500210055082000C400C2
:100C6C00210054082000C300210053082000C200BA
:100C7C00210047082000C900210046082000C800B8
:100C8C00210045082000C700210044082000C600B0
:100C9C0088310320813120004508DF004408DE0044
:100CAC004308DD004208DC00973115278131200014
:100CBC005F082100CB0020005E082100CA00200044
:100CCC005D082100C90020005C082100C8004B0809
:100CDC002000BD0021004A082000BC00210049086A
:100CEC002000BB00210048082000BA0095319A254D
:100CFC00813120003B08803A2100A7008030270278
:100D0C00031D8B2E0A3020003A0203188E2E8F2ED4
:100D1C00AB2E21004B082000BD0021004A0820000A
:100D2C00BC00210049082000BB002100480820001D
:100D3C00BA0095319A25813120003B082100B7007B
:100D4C0020003A082100B600B02E09302100B60070
:100D5C000030B7003308031DB42EB52EDE2EAC1FA9
:100D6C00B82EB92EDE2E4D08A03E8600013087002D
:100D7C002E3081000130CD070030CE3DFF30BC0756
:100D8C00FF30BD3DB301B30ADE2E4D08A03E8600F8
:100D9C0001308700303081000130CD070030CE3D6E
:100DAC00FF30BC07FF30BD3DFF30AF07FF30B03D1B
:100DBC002F083004031DE32EE42ECB2E4D08A03E4D
:100DCC008600013087003608303E81000130CD07A7
:100DDC000030CE3DFF30BC07FF30BD3D5608200033
:100DEC00A700210055082000A6002100540820006F
:100DFC00A500210053082000A40021004B0820006E
:100E0C00A30021004A082000A2002100490820006C
:100E1C00A100210048082000A0008D31C52581319A
:100E2C0020002308BD002208BC002108BB002008BC
:100E3C00BA00210047082000C1002100460820000C
:100E4C00C000210045082000BF00210044082000FC
:100E5C00BE009331D623813120003D082100C7000C
:100E6C0020003C082100C60020003B082100C500E2
:100E7C0020003A082100C40041302000C500203079
:100E8C00C4000030C3000030C2002100560820000E
:100E9C00C900210055082000C8002100540820007A
:100EAC00C700210053082000C6008831032081317F
:100EBC00200045082100D600200044082100D50060
:100ECC00200043082100D400200042082100D30058
:100EDC00FF30AB07FF30AC3D0130C2070030C33DE3
:100EEC004308803AA7003908803A2702031D802F57
:100EFC00380842020318832F842F922F21004E08AA
:100F0C00803AA70080302702031D8E2F4B304D02F4
:100F1C00031C912F922F2E2E4F302100C200003037
:100F2C00C3004208A03E8600013087008101A0303A
:100F3C00F0004E08F2004D08F100A030A7004D085B
:100F4C002702420794313B24813121004D08420293
:100F5C00CD004E08433BCE004C08031DB62FB82FD6
:100F6C000130B92F0030A700A8012708C2002808BB
:100F7C00C3004C080319C32FC42FCF2FFF30CD074C
:100F8C00FF30CE3D4D08A03E8600013087004C0856
:100F9C0081004208BC024308BD3B21082000A70089
:100FAC00210020082000A60021004D08A03E2000B2
:100FBC00A80021003D082000AA0021003C082000C8
:100FCC00A9009431BC24813108002100EF012030AC
:100FDC008400013085001D3093311A238731A030F5
:100FEC00840001308500503093311A238731200062
:040FFC008B31B92B51
:10100600200049088039D3004935DA00C81F0C286A
:101016000D280E285A145A080319122813282328B3
:101026005A0A031D1728182820280030C900003046
:10103600C8000030C7000030C600C817C9012B28F9
:101046000030C9000030C8000030C7000030C600BC
:1010560045088039CA004A08D3064535DB00C41F57
:101066003528362837285B145B0803193B283C28AB
:101076004C285B0A031D4028412849280030C5003A
:101086000030C4000030C3000030C200C417C501E0
:1010960054280030C5000030C4000030C3000030C2
:1010A600C2004508440443044204031D5B285C282F
:1010B60075280030C9000030C8000030C700003075
:1010C600C6008030C8047F30C9045308CA004A08E5
:1010D600C9044908C5004808C4004708C3004608B3
:1010E600C200AC295A08031D79287A2883280030C3
:1010F600C5000030C4000030C3000030C200AC2977
:101106005A08CA00CB014B08CD005B084A02CC0046
:10111600031CCD034C087F3ED40000304D3DD50066
:101126004908D2004808D1004708D0004608CF0039
:101136000030C9000030C8000030C7000030C600CB
:101146000030D9000030D8000030D7000030D6007B
:10115600DB01EB285B080319B128B228CC28013043
:10116600CF35D00DD10DD20D890BB3280130C63540
:10117600C70DC80DC90D890BBA28D91FC328C428A5
:10118600C52846140130D635D70DD80DD90D890B93
:10119600C62845085202031DDA2844085102031DD9
:1011A600DA2843085002031DDA2842084F02031CBE
:1011B600DD28DE28E72859174208CF024308D03B2E
:1011C6004408D13B4508D23B0130CA004A08DB0738
:1011D6001A305B02031CF028F128AD28520851048E
:1011E60050044F040319F828F92812295614122915
:1011F6000130C635C70DC80DC90D890BFC28D91F8E
:1012060005290629072946140130D635D70DD80DEC
:10121600D90D890B0829FF30D407FF30D53DC81FEB
:1012260015291629FB28DB01D91F1A291B2937295D
:10123600FF305605CA00FF305705CB00FF30580572
:10124600CC007F305905CD004D084C044B044A04B0
:1012560003192E292F293229DB01DB0A3729461CDF
:101266003529362937292F295B0803193B293C29BB
:1012760064290130C6070030C73D0030C83D003044
:10128600C93D491C4729482964294608CA00470818
:10129600CB004808CC004908CD000130CE00CD3740
:1012A600CC0CCB0CCA0CCE0B52294D08C9004C08ED
:1012B600C8004B08C7004A08C6000130D4070030F2
:1012C600D53D5508803ACA0080304A02031D6D2973
:1012D600FF305402031C702971297E29FF3020003B
:1012E600D4000030D5000030C9000030C8000030FE
:1012F600C7000030C60020005508803ACA0080307A
:101306004A02031D88290130540203188B298C29AF
:1013160098292000D401D5010030C9000030C8004A
:101326000030C7000030C600D30120005408DA00A0
:101336005A1C9E299F29A129C817A5297F30CA00B2
:101346004A08C8055A36C9005308CA004A08C904DB
:101356006C28080073088039F8007335FA00F21F0C
:10136600B529B629B7297A147A080319BB29BC29E5
:10137600CC297A0A031DC029C129C9290030F300E6
:101386000030F2000030F1000030F000F217F301F7
:10139600D4290030F3000030F2000030F1000030B4
:1013A600F00077088039F900790878060319DC29F6
:1013B600DD29DE2978177735F900F61FE329E429B8
:1013C600E529791479080319E929EA29FA29790A14
:1013D600031DEE29EF29F7290030F7000030F6004B
:1013E6000030F5000030F400F617F701022A00304D
:1013F600F7000030F6000030F5000030F4007A08FF
:1014060079020318072A082A2F2A781F0B2A0C2A82
:10141600112A80302000A0002008F8067A08FB0078
:101426007908FA007B08F9007008FB007408F000E0
:101436007B08F4007108FB007508F1007B08F500D5
:101446007208FB007608F2007B08F6007308FB00C2
:101456007708F3007B08F700FB0179082000A0005D
:10146600A1012108A3007A082002A200031CA303FD
:101476002308803AA40080302402031D442A1A302F
:101486002202031C472A482A7A2A73087204710426
:101496007004031D4F2A512A0130522A0030FB00E6
:1014A6000030F3000030F2000030F1000030F000B0
:1014B6007908FA00802A7B1C612A622A662A7B3612
:1014C6000138FB00682A0310FB0C701C6B2A6C2A7F
:1014D6006D2AFB1701302000A000F337F20CF10C47
:1014E600F00CA00B702A0130A0002008FA0779083A
:1014F6007A02031C7F2A802A5E2A781B832A842A82
:10150600BB2A7A08031D882A892A922A0030F3000A
:101516000030F2000030F1000030F000B82B740803
:10152600F0077508F13D7608F23D7708F33D731C28
:101536009D2A9E2A482B7B1CA12AA22AA62A7B36F4
:101546000138FB00A82A0310FB0C701CAB2AAC2A3E
:10155600AD2AFB1701302000A000F337F20CF10C86
:10156600F00CA00BB02A0130A0002008FA07482B87
:101576007308803A2000A0007708803A2002031DF5
:10158600CE2A76087202031DCE2A75087102031D43
:10159600CE2A740870020318D12AD22A0A2BFF30E9
:1015A600A000FF30A100FF30A200FF30A3007008AA
:1015B6007402A4007108753BA5007208763BA6006C
:1015C6007308773BA7002408A0072508A13D260835
:1015D600A23D2708A33D2308F3002208F2002108B4
:1015E600F1002008F0008030A0002008F806FB0972
:1015F600FB0A7B08031D002B012B122B0130F00781
:101606000030F13D0030F23D0030F33D122B7408FE
:10161600F0027508F13B7608F23B7708F33B730856
:10162600720471047004031D192B1A2B442B7B08BA
:10163600031D1E2B1F2B442B0030F3000030F2003D
:101646000030F1000030F000B82B0130F035F10D1C
:10165600F20DF30D890B292BFB1F322B332B342B69
:1016660070147B1C372B382B3B2B0314FB0D3D2BA7
:101676000310FB0D7A080319412B422B442B013032
:10168600FA02F21F472B482B282BF901FB1F4C2B84
:101696004D2B5B2B7B087F390319522B532B562B73
:1016A600F901F90A5B2B701C592B5A2B5B2B532B18
:1016B600790803195F2B602B8E2B0130F007003061
:1016C600F13D0030F23D0030F33D731C6B2B6C2B6B
:1016D6008E2B70082000A0007108A1007208A200DD
:1016E6007308A3000130A400A337A20CA10CA00C20
:1016F600A40B772B2308F3002208F2002108F1003F
:101706002008F0007A0A0319892B8A2B8E2B0130C8
:10171600A0002008FA077A0A0319922B932B982B1C
:101726007A08031D972B982BA62B0030F300003068
:10173600F2000030F1000030F0007A08031DA42BFF
:10174600A52BA62BF8017A1CA92BAA2BAC2BF217DA
:10175600B12B7F302000A0002008F2057A36F30076
:10176600F81FB62BB72BB82BF317080093314B2372
:101776008B3193312A238B31200097019601220069
:101786008C160330890BC52B000022008C1220001A
:101796000C1ECE2BCF2BCA2B18140C1AD32BD42BE2
:1017A600D02B181017082200C400200016082200AB
:1017B600C30040302000C5000030C4000030C30024
:1017C6000030C2003D30A3000C30A2007E30A100E4
:1017D6002830A00022004308F0004408F100890DDB
:1017E600893B8909F200F300013080310D208B31ED
:1017F60073082000A7007208A6007108A5007008EB
:10180600A4008D31C5258B3120002308C90022088C
:10181600C8002108C7002008C600883103208B3184
:10182600200045082200C800200044082200C70006
:10183600200043082200C600200042082200C500FE
:101846003F302000C500C030C4000030C300003067
:10185600C200220048082000BD00220047082000E0
:10186600BC00220046082000BB00220045082000DC
:10187600BA004130C100A030C0000030BF000030C7
:10188600BE009331D6238B3120003D08C9003C08A9
:10189600C8003B08C7003A08C600883103208B31D0
:1018A600200045082200AB00200044082200AA00C0
:1018B600200043082200A900200042082200A800B8
:1018C60042302000A3000E30A2000A30A1003D30B5
:1018D600A00022002B082000A70022002A082000D2
:1018E600A600220029082000A500220028082000C2
:1018F600A4008D31C5258B31200023082200AF00BE
:10190600200022082200AE00200021082200AD009F
:10191600200020082200AC0043302000BD004830E3
:10192600BC000030BB000030BA0022002F082000A7
:10193600C10022002E082000C00022002D08200031
:10194600BF0022002C082000BE0096318A268B316B
:101956000318AE2CAF2CB82C43302200AF00483011
:10196600AE000030AD000030AC0022002F08200091
:10197600BD0022002E082000BC0022002D082000F9
:10198600BB0022002C082000BA00C330C10048303A
:10199600C0000030BF000030BE0096318A268B3171
:1019A6000318D62CD72CE02CC3302200AF004830C9
:1019B600AE000030AD000030AC0022002F08BC00A5
:1019C6002E08BB002D08BA002C08B9003C082000E0
:1019D600BD0022003B082000BC0022003A0820007F
:1019E600BB00220039082000BA00C030C100A03078
:1019F600C0000030BF000030BE0096318A268B3111
:101A06000318062D072D3A2D22003C082000A700BA
:101A160022003B082000A60022003A082000A5006C
:101A2600220039082000A400BF30A3008030A200A5
:101A36000030A1000030A0008D31C5258B3120007B
:101A46002308BD002208BC002108BB002008BA00FC
:101A560095319A258B3120003B08C5003A08C40011
:101A6600933184238B3122000E168E12832D403043
:101A76002000BD00A030BC000030BB000030BA0022
:101A860022003C082000C10022003B082000C000C4
:101A960022003A082000BF00220039082000BE00BC
:101AA60096318A268B310318592D5A2D792D22000D
:101AB6003C082000BD0022003B082000BC0022009C
:101AC6003A082000BB00220039082000BA009531F0
:101AD6009A258B3120003B08C5003A08C400933193
:101AE60084238B3122000E128E16832D00302000A7
:101AF600C400C500933184238B3122000E128E124E
:101B06002A30BD009830BE004808C2004708C10010
:101B16004608C0004508BF0093315B238B31003077
:101B26002200BD009830BE002B08C2002A08C10062
:101B36002908C0002808BF0093315B238B313B3056
:101B46002200BD009830BE002F08C2002E08C1003A
:101B56002D08C0002C08BF0093315B238B31193050
:101B66002200BD009830BE003C08C2003B08C10000
:101B76003A08C0003908BF0093315B238B31BF2B75
:101B860080310228200023088039AD002335B300B8
:101B9600A21FCE2DCF2DD02D331433080319D42DEB
:101BA600D52DE42D330A031DD92DDA2DE22D003073
:101BB600A3000030A2000030A1000030A000A21750
:101BC600EC2D0030A3000030A2000030A100003050
:101BD600A00027088039A8002808AD062735B200DE
:101BE600A61FF62DF72DF82D321432080319FC2DF9
:101BF600FD2D0C2E320A031D012E022E0A2E003058
:101C0600A7000030A6000030A5000030A400A617EB
:101C1600142E0030A7000030A6000030A5000030CA
:101C2600A40032080319182E192E1E2E3308031D80
:101C36001D2E1E2E272E0030A3000030A2000030DD
:101C4600A1000030A000FF2F2008F00026089431E4
:101C560018248D3171082000B9007008B8003808C2
:101C6600A800A901AA01AB012B08B1002A08B000FF
:101C76002908AF002808AE003908A800A901AA0162
:101C8600AB012B08B7002A08B6002908B5002808BA
:101C9600B4002108F0002508943118248D3171080C
:101CA6002000B9007008B8003808A800A901AA01E8
:101CB600AB012808AE072908AF3D2A08B03D2B081E
:101CC600B13D3908A800A901AA01AB012808B4074B
:101CD6002908B53D2A08B63D2B08B73D2208F00075
:101CE6002408943118248D3171082000B900700839
:101CF600B8003808A800A901AA01AB012808AE0758
:101D06002908AF3D2A08B03D2B08B13D3908A80087
:101D1600A901AA01AB012808B4072908B53D2A087C
:101D2600B63D2B08B73D0830AE35AF0DB00DB10D41
:101D3600890B972E2108F0002408943118248D3140
:101D460071082000B9007008B8003808AE073908D5
:101D5600AF3D0030B03DB13D2008F000250894317C
:101D660018248D3171082000B9007008B8003808B1
:101D7600AE073908AF3D0030B03DB13D0830AE3555
:101D8600AF0DB00DB10D890BC22E2008F00024084E
:101D9600943118248D3171082000B9007008B800FC
:101DA6003808AE073908AF3D0030B03DB13D2108D7
:101DB600F0002608943118248D3171082000B900EE
:101DC6007008B8003808B4073908B53D0030B63D8C
:101DD600B73D2208F0002508943118248D3171088A
:101DE6002000B9007008B8003808B4073908B53DB6
:101DF6000030B63DB73D2208F0002608943118247D
:101E06008D3171082000B9007008B8003808A800A4
:101E16003908A900AA01AB010830A835A90DAA0DF9
:101E2600AB0D890B102F2808B4072908B53D2A08E1
:101E3600B63D2B08B73D2E08A8002F08A90030088C
:101E4600AA003108AB001830AB36AA0CA90CA80CB6
:101E5600890B272F2808B4072908B53D2A08B63D5F
:101E66002B08B73D0830AE35AF0DB00DB10D890B5F
:101E7600362F33083207A800A901A90D2808823E8B
:101E8600B800FF30293DB9005F2F0130B435B50DDC
:101E9600B60DB70D890B492FB11F522F532F542F53
:101EA60034140130AE35AF0DB00DB10D890B552F81
:101EB600FF30B807FF30B93DB61F622F632F482F9A
:101EC600B201B11F672F682F842FFF302E05A8009F
:101ED600FF302F05A900FF303005AA007F303105FD
:101EE600AB002B082A042904280403197B2F7C2F16
:101EF6007F2FB201B20A842F341C822F832F842FA6
:101F06007C2F32080319882F892FB12F0130B4078F
:101F16000030B53D0030B63D0030B73D371C942F3C
:101F2600952FB12F3408A8003508A9003608AA0055
:101F36003708AB000130AC00AB37AA0CA90CA80CD3
:101F4600AC0B9F2F2B08B7002A08B6002908B5004E
:101F56002808B4000130B8070030B93D3908803A86
:101F6600A80080302802031DBA2FFF303802031C58
:101F7600BD2FBE2FC82F7F302000B7008030B6009F
:101F86000030B5000030B400F32F20003908803A45
:101F9600A80080302802031DD22F01303802031812
:101FA600D52FD62FE12F00302000B7000030B60025
:101FB6000030B5000030B400AD01F32F2000380822
:101FC600B300FF30B405FF30B5057F30B6050030ED
:101FD600B705331CEF2FF02FF12FB6173336B700A6
:101FE6002D08A8002808B7043708A3003608A20061
:0A1FF6003508A1003408A00008001F
:1026040071082200CA007008C9000800710822007D
:10261400CE007008CD00080071082200CC007008BC
:10262400CB000800F1007108933120239331080096
:10263400640080010131890B1B2B0034F000200061
:10264400101E252B262B212B700823009A0008002E
:1026540080302C0099001F30980040309700CF3014
:1026640025009E05080020009E019D019F013E302B
:102674009B009A019010F0309C00080073087204CB
:10268400710470040319472B482B4A2B8030F3063E
:102694000800943189249331803106209331933199
:1026A4002A2393319331352393319331F623933194
:1026B40008003F302100EE000030E600E700220071
:1026C4003E082100E90022003D082100E800EE3028
:1026D400EA009331B82393310800F31B722B732B58
:1026E400742B832B7009F0007109F1007209F20058
:1026F4007309F300F00A0319F10A0319F20A031922
:10270400F30A080020004508C7004408C600C7367D
:10271400C60CC736C60C46082C0098002000440896
:102724000339C6000530C635FF3E031D952B4635DB
:102734002C0097000800F5007508F4007408860062
:1027440001308700F40A7108F3007008F200F00AFF
:102754000319F10A72088400730885000008C03F59
:102764008908031DB62BB72BA02B0800210069088C
:10277400ED006808EC00C92B6708D8006608D7008C
:10278400EC30D9006A08DA008031B7209331210097
:102794006C0884006D0885001200031DD22BD32B16
:1027A400BE2BE601E701080080302000BD06410889
:1027B400F3004008F2003F08F1003E08F0003D0835
:1027C400F7003C08F6003B08F5003A08F4008931AC
:1027D400AD21933173082000BD007208BC0071085C
:1027E400BB007008BA000800083023009F00903036
:1027F4009D0024309E0033309B009C010030F0008B
:102804000030F1009331082393310030F0000030A0
:10281400F10093310E2393310030F0000030F100C9
:102824009331022393312100EF010800F800F401F1
:10283400F5017008F200F3017208F6007308F7005E
:10284400781C252C262C2A2C7608F4077708F53DCD
:102854000130F635F70D890B2B2C0310F80C780892
:10286400031D352C362C222C7508F1007408F00059
:102874000800F5007008F7007508F600552C770875
:102884008600013087000108F4000130F30073086A
:10289400F70776088600013087007408810001304C
:1028A400F3007308F6070130F1020030F23B710ABD
:1028B400031D602C720A031D602C612C412C08003E
:1028C4002000A500A301A4017A2C2208A000A101E4
:1028D4002008F2002108F3007C08F5007B08F400CE
:1028E40095313D25943101302000A3070030A43DEB
:1028F40023082507A000200886000130870001086E
:10290400A2002208031D872C882C672C08002200B3
:102914008C018D018E01163021008C0070308D00E9
:10292400CF308E004F3023008E0070308D00073082
:102934008C0024008D018C018E0121009517250047
:102944008C018D018E01373026008C00F0308D0013
:10295400FF308E003F3027008C00F0308D00FF30B8
:102964008E0017303C00A40012303D009F000E3052
:10297400900008002000AA1FC02CC12CC32CA90160
:10298400AA01AB01AC01D72C2030F2000030F300D7
:1029940020002708F5002608F40095313D259431E0
:1029A40001302000AB070030AC3D2C08803AFD001C
:1029B4002A08803A7D02031DE12C29082B02031CFE
:1029C400E42CE52CC62C20002708FC002608FB007C
:1029D4002808943162249431080000307005F8000E
:1029E40000307105F90080307205FA007F307305FC
:1029F400FB007B087A0479047804031D022D032D5F
:102A04000B2D0030F3000030F2000030F1000030F4
:102A1400F00000307405F80000307505F9008030CE
:102A24007605FA007F307705FB007B087A04790489
:102A34007804031D1E2D1F2D272D0030F7000030B4
:102A4400F6000030F5000030F40077087306031D2B
:102A5400352D76087206031D352D75087106031D84
:102A6400352D740870060319382D392D3B2D0310AC
:102A74003C2D03140800740875040319422D432DDA
:102A8400492D74087504031D482D492D4E2D7208D7
:102A9400933114239531992D7408860075088700A5
:102AA4004931160001040319582D592D792D740844
:102AB4008600750887004931403FF600413FF70022
:102AC40074088600750887004231403FF800413F92
:102AD400F9007908803AFA007708803A7A02031DEF
:102AE400752D760878020318782D792D992D7408A0
:102AF40086007508870042317408840075088500D3
:102B0400403F0007F6000131413F003DF7007608E1
:102B140086007708870072088100740886007508AB
:102B2400870042310130810741310318810A0800CE
:102B3400031020003C0D3D0DC3004308031DA32DCD
:102B4400A42DAD2D0030BD000030BC000030BB0012
:102B54000030BA000A2E3A08BE003B08BF003C0809
:102B6400C0003D08C1001F30C136C00CBF0CBE0CF4
:102B7400890BB62D3E08C200BC17FF30BA05FF30E2
:102B8400BB05FF30BC050030BD059630C302C31F32
:102B9400CC2DCD2DE52D4308803A973E0318D32D37
:102BA400D42DD52DA42D0130BD36BC0CBB0CBA0CD4
:102BB400890BD62D0130BE003E08C307031DE32D4B
:102BC400E42DD52DFA2D20304302031CEA2DEB2DE4
:102BD400F52DA42D0130BA35BB0DBC0DBD0D890BEF
:102BE400ED2D0130C3024308031DF92DFA2DEC2D00
:102BF40042080319FE2DFF2D0A2EBA09BB09BC0990
:102C0400BD09BA0A0319BB0A0319BC0A0319BD0A90
:102C14000800220027082000A50022002608200022
:102C2400A400220025082000A3002200240820007C
:102C3400A2007308A5007208A4007108A30070081C
:102C4400A2002208F4002308F5002408F600250851
:102C5400F7001730F736F60CF50CF40C890B2C2E14
:102C6400FF307405A00000307505A1002008210480
:102C7400031D3D2E3E2E5F2E2208F4002308F5008E
:102C84002408F6002508F7000130F435F50DF60D9B
:102C9400F70D890B472E7708760475047404031D19
:102CA400542E552E5A2E0230F0000030F100892E99
:102CB4000330F0000030F100892E200A2104031DA6
:102CC400642E652E852E2208F4002308F5002408BE
:102CD400F6002508F7000930F435F50DF60DF70D6B
:102CE400890B6E2E770876047504740403197B2E01
:102CF4007D2E01307E2E0030F800F9017808F000B6
:102D04007908F100892E0430F0000030F100080049
:102D1400003020003A05C20000303B05C30080307B
:102D24003C05C4007F303D05C50045084404430408
:102D34004204031D9E2E9F2EA72E0030BD0000309E
:102D4400BC000030BB000030BA0000303E05C200B9
:102D540000303F05C30080304005C4007F3041058A
:102D6400C5004508440443044204031DBA2EBB2E87
:102D7400C32E0030C1000030C0000030BF0000305E
:102D8400BE00BD1FC62EC72EDF2E0030C20000308D
:102D9400C3000030C4008030C5003A08C2023B08BA
:102DA400C33B3C08C43B3D08C53B4508BD00440843
:102DB400BC004308BB004208BA00C11FE22EE32E48
:102DC400FB2E0030C2000030C3000030C40080304D
:102DD400C5003E08C2023F08C33B4008C43B41084B
:102DE400C53B4508C1004408C0004308BF00420871
:102DF400BE008030BD068030C10641083D02031D7F
:102E04000D2F40083C02031D0D2F3F083B02031DFC
:102E14000D2F3E083A020318102F112F132F031001
:102E2400142F03140800220023082000EF002200BE
:102E340022082000EE00220021082000ED002200DC
:102E440020082000EC005F08EF005E08EE005D083B
:102E5400ED005C08EC006C08E0006D08E1006E0811
:102E6400E2006F08E3001730E336E20CE10CE00CFB
:102E7400890B362FFF306005E40000306105E50062
:102E84006408813EEA00FF30653DEB006B08803A40
:102E9400E00080306002031D512F17306A02031CCA
:102EA400542F552F562FFF2F2000EB1B5A2F5B2F2B
:102EB400B82FFF30E000FF30E1007F30E200003047
:102EC400E3006A0A692FE337E20CE10CE00C890B9A
:102ED400652F6308E9006208E8006108E7006008FC
:102EE400E6006C086605E0006D086705E1006E0801
:102EF4006805E2006F086905E30063086204610481
:102F04006004031D862F872F882F552F6C08E0003F
:102F14006D08E1006E08E2006F08E3001F30E3363D
:102F2400E20CE10CE00C890B912F6308620461044C
:102F3400600403199E2F9F2FA72F6608EC076708CC
:102F4400ED3D6808EE3D6908EF3D6609E00067095C
:102F5400E1006809E2006909E3006008EC05610822
:102F6400ED056208EE056308EF05F72F6C08E00035
:102F74006D08E1006E08E2006F08E3001F30E336DD
:102F8400E20CE10CE00C890BC12F630862046104BC
:102F94006004031DCE2FCF2FD82F0030EF00003058
:102FA400EE000030ED000030EC00F72F6C08E0007C
:102FB4006D08E1006E08E2006F08E3000130E035BF
:102FC400E10DE20DE30D890BE12F63086204610456
:102FD40060040319EE2FEF2FF72FBF30EF0080307E
:102FE400EE000030ED000030EC006F08DF006E08EA
:102FF400DE006D08DD006C08DC0008006434693410
:103004007334743461346E34633465345F346334DC
:103014006F346E34743472346F346C343A34203414
:1030240020342534663420340D340A3400345334C7
:1030340041344934443441345F34503457344D348A
:103044003A34203420342534663420340D340034AA
:10305400443469347334743461346E34633469349D
:1030640061343A34203420342534663420340D3429
:103074000034533441344934443441343A342034F0
:1030840020342534663420340D34003469346E34ED
:0C309400663400346E3461346E34003455
:020000040001F9
:06000E00FC3FFF3E9F3F96
:00000001FF
